:020000040800F2
:1000000000A0002031540008ED500008EF50000817
:10001000F1500008F3500008F550000800000000FF
:10002000000000000000000000000000F750000881
:10003000F950000800000000FB500008FD500008C7
:10004000815400088154000881540008815400083C
:10005000815400088154000881540008815400082C
:10006000815400088154000881540008815400081C
:10007000815400088154000881540008815400080C
:1000800081540008815400088154000881540008FC
:1000900081540008815400088154000881540008EC
:1000A00081540008815400088154000881540008DC
:1000B0008154000809510008815400088154000847
:1000C00081540008815400088154000881540008BC
:1000D00081540008815400088154000881540008AC
:1000E000815400088154000881540008815400089C
:1000F000815400088154000881540008815400088C
:100100000000000000000000000000008154000812
:10011000815400088154000881540008815400086B
:10012000815400088154000881540008815400085B
:100130008154000881540008000000000000000005
:100140008154000881540008815400080000000018
:10015000000000000000000000000000000000009F
:1001600000000000000000008154000881540008D5
:1001700081540008000000000000000000000000A2
:0801800000000000815400089A
:1001900010B5054C237833B9044B13B10448AFF3C1
:1001A00000800123237010BDDC010020000000004E
:1001B000F88F000808B5034B1BB103490348AFF3A0
:1001C000008008BD00000000E0010020F88F00085A
:1001D00081F0004102E000BF83F0004330B54FEAF8
:1001E00041044FEA430594EA050F08BF90EA020F65
:1001F0001FBF54EA000C55EA020C7FEA645C7FEAF8
:10020000655C00F0E2804FEA5454D4EB5555B8BF1A
:100210006D420CDD2C4480EA020281EA030382EA8B
:10022000000083EA010180EA020281EA0303362D1D
:1002300088BF30BD11F0004F4FEA01314FF4801CF0
:100240004CEA113102D0404261EB410113F0004F02
:100250004FEA03334CEA133302D0524263EB4303B9
:1002600094EA050F00F0A780A4F10104D5F1200E57
:100270000DDB02FA0EFC22FA05F2801841F10001B2
:1002800003FA0EF2801843FA05F359410EE0A5F186
:1002900020050EF1200E012A03FA0EFC28BF4CF0B7
:1002A000020C43FA05F3C01851EBE37101F000456D
:1002B00007D54FF0000EDCF1000C7EEB00006EEB7A
:1002C0000101B1F5801F1BD3B1F5001F0CD3490804
:1002D0005FEA30004FEA3C0C04F101044FEA44525B
:1002E00012F5800F80F09A80BCF1004F08BF5FEAE2
:1002F000500C50F1000041EB045141EA050130BDC2
:100300005FEA4C0C404141EB010111F4801FA4F164
:100310000104E9D191F0000F04BF01460020B1FAB9
:1003200081F308BF2033A3F10B03B3F120020CDAF1
:100330000C3208DD02F1140CC2F10C0201FA0CF0CF
:1003400021FA02F10CE002F11402D8BFC2F1200C34
:1003500001FA02F120FA0CFCDCBF41EA0C019040EA
:10036000E41AA2BF01EB0451294330BD6FEA040433
:100370001F3C1CDA0C340EDC04F11404C4F120021E
:1003800020FA04F001FA02F340EA030021FA04F330
:1003900045EA030130BDC4F10C04C4F1200220FA87
:1003A00002F001FA04F340EA0300294630BD21FAC5
:1003B00004F0294630BD94F0000F83F4801306BF8B
:1003C00081F480110134013D4EE77FEA645C18BF7F
:1003D0007FEA655C29D094EA050F08BF90EA020F16
:1003E00005D054EA000C04BF1946104630BD91EA0E
:1003F000030F1EBF0021002030BD5FEA545C05D111
:100400004000494128BF41F0004130BD14F580044F
:100410003CBF01F5801130BD01F0004545F0FE41C3
:1004200041F470014FF0000030BD7FEA645C1ABFF8
:10043000194610467FEA655C1CBF0B46024650EA2F
:10044000013406BF52EA033591EA030F41F400215B
:1004500030BD00BF90F0000F04BF0021704730B5E1
:100460004FF4806404F132044FF000054FF00001B6
:1004700050E700BF90F0000F04BF0021704730B577
:100480004FF4806404F1320410F0004548BF40424C
:100490004FF000013EE700BF42004FEAE2014FEAA1
:1004A00031014FEA02701FBF12F07F4393F07F4F7C
:1004B00081F06051704732F07F4208BF704793F07F
:1004C0007F4F04BF41F40021704730B54FF4607492
:1004D00001F0004521F000411CE700BF50EA010295
:1004E00008BF704730B54FF000050AE050EA01023E
:1004F00008BF704730B511F0004502D5404261EBAE
:1005000041014FF4806404F132045FEA915C3FF4EE
:10051000D8AE4FF003025FEADC0C18BF03325FEA8B
:10052000DC0C18BF033202EBDC02C2F1200300FA3C
:1005300003FC20FA02F001FA03FE40EA0E0021FA61
:1005400002F11444BDE600BF034613F8012B002A54
:10055000FBD1181A013870470000000000000000AD
:1005600001F0FF01102A2BDB10F0070F08D010F864
:10057000013B013A8B422DD010F0070F42B3F6D168
:10058000F0B441EA012141EA014122F007047FF081
:1005900000070023F0E80256083C85EA010586EAD8
:1005A000010685FA47F5A3FA87F586FA47F6A5FA14
:1005B00087F68EB9EED1F0BC01F0FF0102F0070220
:1005C00032B110F8013B013A83EA010313B1F8D1CB
:1005D0000020704701387047002D06BF35460338AC
:1005E000073815F0010F07D1013015F4807F02BFE5
:1005F000013015F4C03F0130F0BC0138704700BF36
:1006000070B54FF0FF0C4CF4E06C1CEA11541DBFA8
:100610001CEA135594EA0C0F95EA0C0F00F0DEF873
:100620002C4481EA030621EA4C5123EA4C5350EA58
:10063000013518BF52EA033541F4801143F48013A9
:1006400038D0A0FB02CE4FF00005E1FB02E506F03A
:100650000042E0FB03E54FF00006E1FB03569CF08F
:10066000000F18BF4EF0010EA4F1FF04B6F5007F95
:1006700064F5407404D25FEA4E0E6D4146EB060607
:1006800042EAC62141EA55514FEAC52040EA5E5090
:100690004FEACE2EB4F1FD0C88BFBCF5E06F1ED83A
:1006A000BEF1004F08BF5FEA500E50F1000041EB71
:1006B000045170BD06F0004646EA010140EA02001E
:1006C00081EA0301B4EB5C04C2BFD4EB0C0541EA40
:1006D000045170BD41F480114FF0000E013C00F355
:1006E000AB8014F1360FDEBF002001F0004170BD79
:1006F000C4F10004203C35DA0C341BDC04F1140492
:10070000C4F1200500FA05F320FA04F001FA05F21D
:1007100040EA020001F0004221F0004110EBD370EA
:1007200021FA04F642EB06015EEA430E08BF20EA16
:10073000D37070BDC4F10C04C4F1200500FA04F3B9
:1007400020FA05F001FA04F240EA020001F000414B
:1007500010EBD37041F100015EEA430E08BF20EABE
:10076000D37070BDC4F1200500FA05F24EEA020E06
:1007700020FA04F301FA05F243EA020321FA04F035
:1007800001F0004121FA04F220EA020000EBD370EC
:100790005EEA430E08BF20EAD37070BD94F0000FEC
:1007A0000FD101F00046400041EB010111F4801F20
:1007B00008BF013CF7D041EA060195F0000F18BFD1
:1007C000704703F00046520043EB030313F4801F0D
:1007D00008BF013DF7D043EA0603704794EA0C0FC7
:1007E0000CEA135518BF95EA0C0F0CD050EA4106DD
:1007F00018BF52EA4306D1D181EA030101F000415A
:100800004FF0000070BD50EA410606BF1046194681
:1008100052EA430619D094EA0C0F02D150EA01368D
:1008200013D195EA0C0F05D152EA03361CBF1046CE
:1008300019460AD181EA030101F0004141F0FE416D
:1008400041F470014FF0000070BD41F0FE4141F4F1
:10085000780170BD70B54FF0FF0C4CF4E06C1CEAF1
:1008600011541DBF1CEA135594EA0C0F95EA0C0FA6
:1008700000F0A7F8A4EB050481EA030E52EA033561
:100880004FEA013100F088804FEA03334FF0805582
:1008900045EA131343EA12634FEA022245EA1115AF
:1008A00045EA10654FEA00260EF000419D4208BF60
:1008B000964244F1FD0404F5407402D25B084FEA0D
:1008C0003202B61A65EB03055B084FEA32024FF4B9
:1008D00080104FF4002CB6EB020E75EB030E22BF16
:1008E000B61A754640EA0C005B084FEA3202B6EBD6
:1008F000020E75EB030E22BFB61A754640EA5C0085
:100900005B084FEA3202B6EB020E75EB030E22BF14
:10091000B61A754640EA9C005B084FEA3202B6EB15
:10092000020E75EB030E22BFB61A754640EADC00D4
:1009300055EA060E18D04FEA051545EA16754FEA36
:1009400006164FEAC30343EA52734FEAC2025FEA54
:100950001C1CC0D111F4801F0BD141EA00014FF0E3
:1009600000004FF0004CB6E711F4801F04BF0143B4
:100970000020B4F1FD0C88BFBCF5E06F3FF6AFAED0
:10098000B5EB030C04BFB6EB020C5FEA500C50F160
:10099000000041EB045170BD0EF0004E4EEA1131E3
:1009A00014EB5C04C2BFD4EB0C0541EA045170BDEA
:1009B00041F480114FF0000E013C90E645EA060E2E
:1009C0008DE60CEA135594EA0C0F08BF95EA0C0F5C
:1009D0003FF43BAF94EA0C0F0AD150EA01347FF4A4
:1009E00034AF95EA0C0F7FF425AF104619462CE77B
:1009F00095EA0C0F06D152EA03353FF4FDAE1046DE
:100A0000194622E750EA410618BF52EA43067FF42E
:100A1000C5AE50EA41047FF40DAF52EA43057FF4BE
:100A2000EBAE12E74FF0FF3C06E000BF4FF0010CC9
:100A300002E000BF4FF0010C4DF804CD4FEA410C2D
:100A40007FEA6C5C4FEA430C18BF7FEA6C5C1BD0FA
:100A500001B050EA410C0CBF52EA430C91EA030F7B
:100A600002BF90EA020F0020704710F1000F91EAD8
:100A7000030F58BF994208BF90422CBFD8176FEAA6
:100A8000E37040F0010070474FEA410C7FEA6C5C74
:100A900002D150EA013C07D14FEA430C7FEA6C5C7B
:100AA000D6D152EA033CD3D05DF8040B704700BFA7
:100AB0008446104662468C461946634600E000BFF5
:100AC00001B5FFF7B7FF002848BF10F1000F01BDC7
:100AD0004DF808EDFFF7F4FF0CBF012000205DF892
:100AE00008FB00BF4DF808EDFFF7EAFF34BF012017
:100AF00000205DF808FB00BF4DF808EDFFF7E0FFB0
:100B000094BF012000205DF808FB00BF4DF808ED00
:100B1000FFF7CEFF94BF012000205DF808FB00BF67
:100B20004DF808EDFFF7C4FF34BF012000205DF849
:100B300008FB00BF4FEA410C7FEA6C5C02D150EA2F
:100B4000013C0AD14FEA430C7FEA6C5C02D152EAC5
:100B5000033C02D14FF0000070474FF00100704796
:100B60004FEA410212F5001215D211D56FF47873D5
:100B7000B3EB625212D94FEAC12343F0004343EA78
:100B8000505311F0004F23FA02F018BF4042704753
:100B90004FF00000704750EA013005D111F00040DD
:100BA00008BF6FF0004070474FF00000704700BF73
:100BB0004A0011D212F5001211D20DD56FF47873DC
:100BC000B3EB62520ED44FEAC12343F0004343EA31
:100BD000505323FA02F070474FF00000704750EA7C
:100BE000013002D14FF0FF3070474FF000007047E6
:100BF0004FEA4102B2F1E04324BFB3F5001CDCF13F
:100C0000FE5C0DD901F0004C4FEAC0024CEA507076
:100C1000B2F1004F40EB830008BF20F001007047A5
:100C200011F0804F21D113F13872BCBF01F00040A8
:100C3000704741F480114FEA5252C2F11802C2F1DA
:100C4000200C10FA0CF320FA02F018BF40F001005B
:100C50004FEAC1234FEAD32303FA0CFC40EA0C000D
:100C600023FA02F34FEA4303CCE77FEA625307D14A
:100C700050EA01331EBF4FF0FE4040F44000704781
:100C800001F0004040F0FE4040F40000704700BF1B
:100C900010B504460E4B18784FF47A73B3FBF0F39B
:100CA0000C4A1068B0FBF3F000F0DEF868B90F2CC6
:100CB00001D901200AE0002221464FF0FF3000F068
:100CC00061F8034B5C60002000E0012010BD00BF14
:100CD000000000200800002008B5074A136843F010
:100CE00010031360032000F02FF80020FFF7D0FF5F
:100CF00004F0B4F9002008BD00200240034A116846
:100D0000034B1B780B441360704700BF08020020A0
:100D100000000020014B1868704700BF0802002047
:100D200038B50446FFF7F6FF0546B4F1FF3F02D0A1
:100D3000044B1B781C44FFF7EDFF401BA042FAD385
:100D400038BD00BF0000002010B50446C31E042BB0
:100D50000FD80A4AD36823F4E0631B041B0C240257
:100D600004F4E064234343F0BF6343F40033D360EF
:100D700010BDBC21024804F01DF9EAE700ED00E0D7
:100D80005896000870B505460C4616460F2A25D819
:100D90000F2C28D81B4BDB68C3F30223C3F10702D7
:100DA000042A28BF0422191D062921D9033B4FF02C
:100DB000FF3101FA02F224EA02049C4001FA03F333
:100DC00026EA03063443002D14DB2401E4B205F1C6
:100DD000604505F5614585F8004370BDD4210A489A
:100DE00004F0E8F8D4E7D521074804F0E3F8D1E7A8
:100DF0000023DCE705F00F052401E4B2034B5C554A
:100E0000EBE700BF00ED00E05896000814ED00E0AD
:100E100010B5041E08DB04F01F026409012393408F
:100E2000044A42F8243010BDE821034804F0C2F817
:100E3000F1E700BF00E100E05896000810B5041E7D
:100E400009DB04F01F026409012393402034044AA3
:100E500042F8243010BDF821024804F0ABF8F0E766
:100E600000E100E0589600080138B0F1807F0AD216
:100E7000064B5860064AF02182F823100020986043
:100E800007221A6070470120704700BF10E000E0A1
:100E900000ED00E010B50446042800D038B9042C59
:100EA0000BD0094A136823F00403136010BD40F20D
:100EB000E111064804F07EF8F1E7034A136843F0B5
:100EC00004031360F2E700BF10E000E0589600084A
:100ED000704708B5FFF7FCFF08BD00002DE9F0479B
:100EE00082B006460C46B0F1904F16D0A44B984203
:100EF00013D003F5806398420FD003F580639842C6
:100F00000BD003F58063984207D003F580639842C5
:100F100003D0C3219B4804F04DF823689AB212B164
:100F20001B0C1B041BB1C421964804F043F86368F2
:100F3000012B1ED9112B1CD0022B1AD0122B18D02A
:100F4000914A934215D002F58012934211D002F5D6
:100F5000801293420DD0A2F5F812934209D002F507
:100F60008012934205D002F58012934201D0032BE8
:100F700004D1A368022B06D800254AE0C521814888
:100F800004F018F8F5E7C6217E4804F013F8F3E7FB
:100F9000D6217C4804F00EF86DE0EA21794804F08F
:100FA00009F898E0042300E000238B400343023259
:100FB000764941F82230764B1A68FB4303EA020176
:100FC000606810F4803F01D047EA0201704A116066
:100FD000526803EA0201606810F4003F01D047EA5A
:100FE00002016B4A5160926803EA0201606810F4E2
:100FF000801F01D047EA0201654A9160D268134020
:10100000616811F4001F01D047EA0203604AD3600F
:101010000135276837FA05F300F0AF804FF001087B
:1010200008FA05F818EA0707F2D06368022B01D026
:10103000122B30D1B6F1904F16D0514B9E4213D0A7
:1010400003F580639E420FD003F580639E420BD070
:1010500003F580639E4207D003F580639E4203D070
:10106000D521484803F0A6FF23690C2B03D90E2B8A
:1010700001D00F2B8CD1EA08083256F8220005F077
:10108000070399000F238B4020EA030023698B405C
:10109000034346F8223032684FEA450A4FF003090D
:1010A00009FA0AF96FEA090909EA0202636803F01A
:1010B000030303FA0AF31343336063685A1E012AD9
:1010C00003D9112B01D0122B17D1E368012B02D9C0
:1010D000032B7FF462AFB26809EA0202E36803FA05
:1010E0000AF31343B360736823EA08086368C3F321
:1010F0000013AB4043EA08037360F36809EA03098D
:10110000A36803FA0AF343EA0903F360636813F080
:10111000805F3FF47DAF1F4B9A6942F001029A61F4
:101120009B6903F001030193019BAA08911C174BD3
:1011300053F8210005F0030399000F238B4020EAA8
:101140000300B6F1904F3FF42FAF0D4B9E420ED0EF
:1011500003F580639E420CD003F580639E420AD063
:1011600003F580639E423FF41DAF05231DE7012375
:101170001BE7022319E7032317E702B0BDE8F08756
:10118000000400489496000800001110000001407F
:10119000000401400010024038B505460C4621B15C
:1011A0002B691C4207D1002038BD4FF4C871034899
:1011B00003F000FFF4E70120F6E700BF9496000873
:1011C00070B5054614460E4621B1012C08D86CB9FD
:1011D000AE6270BD4FF4D871054803F0EBFEF4E742
:1011E00040F2B111024803F0E5FEF0E7AE61F0E72E
:1011F00094960008002800F08A8370B582B00446F7
:10120000036813B113F00F0F2BD0236813F0010FF5
:101210004FD063682BB1B3F5803F02D0B3F5A02F58
:1012200025D1B44B5B6803F00C03042B2AD0B14BDF
:101230005B6803F00C03082B1FD06368B3F5803F95
:101240007CD0002B40F0A68003F1804303F50433EB
:101250001A6822F480321A601A6822F480221A6016
:1012600071E040F25711A44803F0A4FECDE740F22C
:101270005D11A14803F09EFED3E79E4B5B6813F41B
:10128000803FDAD04FF4003393FAA3F3994B1968F7
:101290004FF4003393FAA3F3B3FA83F303F01F037D
:1012A000012202FA03F30B4203D06368002B00F023
:1012B0003083236813F0020F00F0DA802369012BDA
:1012C00000F2A08063691F2B00F2A280894B5B684B
:1012D00013F00C0F00F0A880864B5B6803F00C0342
:1012E000082B00F09B802369002B00F0098101226C
:1012F00092FAA2F3B3FA83F303F1845303F5841350
:101300009B001A60FFF706FD0546022393FAA3F33C
:10131000784B1968022393FAA3F3B3FA83F303F02B
:101320001F03012202FA03F30B4240F0D380FFF7C0
:10133000F1FC401B0228E8D90320F1E26D4A136852
:1013400043F4803313606B4AD36A23F00F03A16820
:101350000B43D3626368002B36D0FFF7DBFC0546F6
:101360004FF4003393FAA3F3624B19684FF4003340
:1013700093FAA3F3B3FA83F303F01F03012202FAF3
:1013800003F30B4295D1FFF7C5FC401B6428E7D956
:101390000320C5E2B3F5A02F09D0564B1A6822F4FA
:1013A00080321A601A6822F480221A60CBE703F1B7
:1013B0008043A3F53C331A6842F480221A601A680D
:1013C00042F480321A60BEE7FFF7A4FC05464FF4F2
:1013D000003393FAA3F3474B19684FF4003393FAA1
:1013E000A3F3B3FA83F303F01F03012202FA03F31A
:1013F0000B423FF45EAFFFF78DFC401B6428E6D93B
:1014000003208DE240F295113B4803F0D3FD59E7EC
:101410004FF4CB71384803F0CDFD57E7354B5B688F
:1014200013F4803F7FF45FAF022393FAA3F3314BB1
:101430001968022393FAA3F3B3FA83F303F01F03AB
:10144000012202FA03F30B4204D02369934201D034
:10145000012065E22748036823F0F8036169F82258
:1014600092FAA2F2B2FA82F201FA02F21343036094
:10147000236813F0080F00F09880A369012B66D849
:10148000A369002B69D0012191FAA1F2B2FA82F28C
:101490001A4B13449B001960FFF73CFC05460223DE
:1014A00093FAA3F293FAA3F293FAA3F2114A516AC0
:1014B00093FAA3F3B3FA83F303F01F03012202FAB2
:1014C00003F30B4271D1FFF725FC401B0228E6D93C
:1014D000032025E20748036823F0F8036169F82236
:1014E00092FAA2F2B2FA82F201FA02F21343036014
:1014F000BEE700BF00100240D09600082081901087
:10150000012393FAA3F3B3FA83F303F1845303F5AE
:1015100084139B0000221A60FFF7FCFB05460223A0
:1015200093FAA3F3B94B1968022393FAA3F3B3FA1E
:1015300083F303F01F03012202FA03F30B4297D057
:10154000FFF7E8FB401B0228E9D90320E8E14FF44C
:10155000EB71AF4803F02EFD92E7012292FAA2F25E
:10156000B2FA82F2AB4B13449B0000221A60FFF7E1
:10157000D1FB0546022393FAA3F293FAA3F293FA5E
:10158000A3F2A24A516A93FAA3F3B3FA83F303F0E6
:101590001F03012202FA03F30B4206D0FFF7BAFB46
:1015A000401B0228E6D90320BAE1236813F0040F98
:1015B00000F0C080E368012B01D9052B26D1934BA5
:1015C000DB6913F0805F27D1904BDA6942F08052DB
:1015D000DA61DB6903F080530193019B01258E4B97
:1015E0001B6813F4807F19D0E368012B2AD0002BED
:1015F00034D103F1804303F504331A6A22F0010267
:101600001A621A6A22F004021A6220E040F20221F1
:101610007F4803F0CFFCD2E70025E0E77E4A13685D
:1016200043F480731360FFF775FB06467A4B1B6823
:1016300013F4807FD8D1FFF76DFB801B6428F5D9A8
:1016400003206DE1714A136A43F001031362E368FA
:10165000002B41D0FFF75EFB06462BE0052B09D09F
:101660006A4B1A6A22F001021A621A6A22F0040214
:101670001A62ECE7654B1A6A42F004021A621A6AAF
:1016800042F001021A62E2E7604B196A022393FA00
:10169000A3F3B3FA83F303F01F03012202FA03F367
:1016A000194245D1FFF736FB801B41F2883398423F
:1016B00000F23181022393FAA3F293FAA3F3B3FA6F
:1016C00083F35B0943F00203022BDDD0022393FA7C
:1016D000A3F34E4B596AD9E7FFF71CFB064615E00A
:1016E0004A4B196A022393FAA3F3B3FA83F303F084
:1016F0001F03012202FA03F3194219D0FFF70AFB74
:10170000801B41F28833984200F20781022393FA4A
:10171000A3F293FAA3F3B3FA83F35B0943F0020352
:10172000022BDDD0022393FAA3F3384B596AD9E791
:10173000002D73D1E369022B76D8E369002B00F00A
:10174000EE80324A526802F00C02082A00F0EA8069
:10175000022B40F0B080236A13B1B3F5803F69D10A
:10176000636A4BB3B3F5802F26D0B3F5002F23D097
:10177000B3F5402F20D0B3F5801F1DD0B3F5A01FC7
:101780001AD0B3F5C01F17D0B3F5E01F14D0B3F5CE
:10179000001F11D0B3F5101F0ED0B3F5201F0BD0D2
:1017A000B3F5301F08D0B3F5401F05D0B3F5501F77
:1017B00002D0B3F5601F43D14FF0807393FAA3F3C7
:1017C000B3FA83F303F1845303F584139B000022DF
:1017D0001A60FFF79FFA05464FF0007393FAA3F3E0
:1017E0000A4B19684FF0007393FAA3F3B3FA83F32B
:1017F00003F01F03012202FA03F3194226D0FFF778
:1018000089FA401B0228E7D9032089E00010024032
:10181000D09600082081901000700040424AD369A1
:1018200023F08053D36185E740F246213F4803F01F
:10183000C1FB82E740F24F213C4803F0BBFB8FE73E
:101840004FF41471394803F0B5FBB5E736494B68DE
:1018500023F47413626A206A024313434B604FF00F
:10186000807393FAA3F3B3FA83F303F1845303F57C
:1018700084139B0001221A60FFF74CFA04464FF0D4
:10188000007393FAA3F3284B19684FF0007393FA8F
:10189000A3F3B3FA83F303F01F03012202FA03F365
:1018A000194206D1FFF736FA001B0228E7D90320B8
:1018B00036E0002034E04FF0807393FAA3F3B3FADC
:1018C00083F303F1845303F584139B0000221A6011
:1018D000FFF720FA04464FF0007393FAA3F3124B7C
:1018E00019684FF0007393FAA3F3B3FA83F303F08C
:1018F0001F03012202FA03F3194206D0FFF70AFA86
:10190000001B0228E7D903200AE0002008E001209C
:101910007047012004E0032002E0032000E00020E3
:1019200002B070BD0120FBE700100240D096000815
:1019300010B4174B5C6804F00C03082B26D104F498
:1019400070124FF4701393FAA3F3B3FA83F322FAED
:1019500003F31049C85C0E4BDB6A03F00F030F2240
:1019600092FAA2F2B2FA82F2D3400B441A7C14F437
:10197000803F05D1084B03FB00F05DF8044B704736
:10198000064BB3FBF2F300FB03F0F6E70348F4E782
:10199000001002401090000800093D0000127A007B
:1019A000002800F01B8170B504460D46036813F053
:1019B0000F0F14D0022D18D88A4B1B6803F00703B1
:1019C000AB4218D2874A136823F007032B431360F6
:1019D000136803F00703AB420DD0012070BD40F245
:1019E000BA21814803F0E6FAE4E740F2BB217E48E1
:1019F00003F0E0FAE0E7236813F0020F18D0A368C1
:101A00007BB1802B0DD0902B0BD0A02B09D0B02B0D
:101A100007D0C02B05D0D02B03D0E02B01D0F02B6A
:101A20003ED1724A536823F0F003A1680B43536020
:101A3000236813F0010F69D06368022B36D86368FE
:101A4000012B39D0022B4CD0022292FAA2F2674A23
:101A50001068022292FAA2F2B2FA82F202F01F0297
:101A6000012101FA02F2104200F0BA805F494A688F
:101A700022F0030213434B60FFF74CF906465B4B21
:101A80005B6803F00C036268B3EB820F3ED0FFF794
:101A900041F9801B41F288339842F0D903209DE739
:101AA00040F2D221504803F085FABAE740F2D9213A
:101AB0004D4803F07FFAC2E74FF4003292FAA2F2E7
:101AC0004A4A10684FF4003292FAA2F2B2FA82F255
:101AD00002F01F02012101FA02F20242C6D10120E6
:101AE0007CE74FF0007292FAA2F2404A10684FF081
:101AF000007292FAA2F2B2FA82F202F01F020121FF
:101B000001FA02F21042B1D1012067E7354B1B68A0
:101B100003F00703AB420CD9324A136823F00703E2
:101B20002B431360136803F00703AB4201D001207D
:101B300054E7236813F0040F14D0E3685BB1B3F5E6
:101B4000806F08D0B3F5A06F05D0B3F5C06F02D099
:101B5000B3F5E06F36D1254A536823F4E063E168BA
:101B60000B435360236813F0080F15D023695BB152
:101B7000B3F5806F08D0B3F5A06F05D0B3F5C06F93
:101B800002D0B3F5E06F23D1184A536823F46053B1
:101B9000216943EAC1035360FFF7CAFE134B5B6838
:101BA00003F0F003F02292FAA2F2B2FA82F2D340EA
:101BB0000F4AD35CD8400F4B18600020FFF768F83D
:101BC00000200BE740F21531074803F0F3F9C2E7B4
:101BD0004FF44771044803F0EDF9D5E70120704751
:101BE0000120FBE600200240D096000800100240D1
:101BF0004096000808000020014B1868704700BF9D
:101C000008000020F0B583B004460368B3F54D3FEB
:101C100080F0A281236813F4803F54D063684BB1F5
:101C2000B3F5807F06D0B3F5007F03D0B3F5407FD6
:101C300040F09781964BDB6913F0805F40F096810E
:101C4000934BDA6942F08052DA61DB6903F080532A
:101C50000193019B01258F4B1B6813F4807F00F0DB
:101C600087818B4B1B6A13F4407322D0626802F4A5
:101C700040729A421DD08648016A21F440764FF4A2
:101C8000803393FAA3F2B2FA82F2834F3A4492007D
:101C90004FF0010CC2F800C093FAA3F3B3FA83F338
:101CA0003B449B0000221A60066211F0010F40F0D5
:101CB0007481774A136A23F4407361680B4313629B
:101CC000002D40F09681236813F0010F0AD0A3681D
:101CD000032B00F293816E4A136B23F00303A16878
:101CE0000B431363236813F0020F12D0E3684BB168
:101CF000B3F5803F06D0B3F5003F03D0B3F5403FC6
:101D000040F08181624A136B23F44033E1680B4356
:101D10001363236813F0040F12D023694BB1B3F59A
:101D2000802F06D0B3F5002F03D0B3F5402F40F03D
:101D30006F81574A136B23F4402321690B431363CC
:101D4000236813F0200F0BD0E36913B1102B40F080
:101D500064814F4A136B23F01003E1690B43136353
:101D6000236813F4003F0DD0A36BB3F5800F02D0AE
:101D7000002B40F05781464A536823F48003A16B3F
:101D80000B435360236813F0400F0BD0236A13B149
:101D9000202B40F04C813E4A136B23F02003216A34
:101DA0000B431363236813F0080F12D063694BB120
:101DB000B3F5801F06D0B3F5001F03D0B3F5401F65
:101DC00040F03B81324A136B23F4401361690B43AB
:101DD0001363236813F0100F12D0A3694BB1B3F54E
:101DE000800F06D0B3F5000F03D0B3F5400F40F0DD
:101DF0002A81274A136B23F44003A1690B43136321
:101E0000236813F4007F0CD0E36A1BB1B3F5000F15
:101E100040F01F811E4A536823F40003E16A0B431C
:101E20005360236813F0800F3AD0636A43B3B3F56D
:101E3000807F25D0B3F5887F22D0B3F5907F1FD067
:101E4000B3F5987F1CD0B3F5A07F19D0B3F5A87F68
:101E500016D0B3F5B07F13D0B3F5B87F10D0B3F57B
:101E6000C07F0DD0B3F5C87F0AD0B3F5D07F07D0BF
:101E7000B3F5D87F04D040F26911084803F09AF80E
:101E8000034AD36A23F4F873616A0B43D36207E011
:101E90000010024000700040008190100897000878
:101EA000236813F4807F31D0A36A43B3B3F5005F96
:101EB00025D0B3F5085F22D0B3F5105F1FD0B3F57E
:101EC000185F1CD0B3F5205F19D0B3F5285F16D08A
:101ED000B3F5305F13D0B3F5385F10D0B3F5405F82
:101EE0000DD0B3F5485F0AD0B3F5505F07D0B3F516
:101EF000585F04D04FF4BD71614803F05BF8614A4C
:101F0000D36A23F47853A16A0B43D362236813F492
:101F1000805F0CD0236B1BB1B3F5807F40F09F80B6
:101F2000584A136B23F48073216B0B4313632368AC
:101F300013F4005F00F0A180636B1BB1B3F5007F69
:101F400040F093804F4A136B23F40073616B0B4393
:101F50001363002003B0F0BD7D21494803F02AF847
:101F600058E68321464803F025F863E6002572E62B
:101F7000454A136843F480731360FEF7CBFE0646B0
:101F8000414B1B6813F4807F7FF46BAEFEF7C2FEFB
:101F9000801B6428F4D90320DCE7FEF7BBFE06466D
:101FA00015E0384B196A022393FAA3F3B3FA83F3CB
:101FB00003F01F03012202FA03F30B427FF479AE10
:101FC000FEF7A8FE801B41F28833984253D80223C3
:101FD00093FAA3F293FAA3F3B3FA83F35B0943F002
:101FE0000203022BDDD0022393FAA3F3254B596A97
:101FF000D9E7D36923F08053D36164E6CA2120482E
:1020000002F0D8FF67E6D5211D4802F0D3FF79E63C
:10201000E1211B4802F0CEFF8BE6EC21184802F0CC
:10202000C9FF96E6FA21164802F0C4FFA3E64FF472
:102030008771134802F0BEFFADE640F22F11104841
:1020400002F0B8FFBEE640F239110D4802F0B2FFCF
:10205000CFE640F249110A4802F0ACFFDAE64FF44D
:10206000CD71074802F0A6FF5AE74FF4D671044835
:1020700002F0A0FF66E703206CE700206AE700BFDC
:10208000089700080010024000700040F8B50546AF
:102090000F4616461C4639E02CB1FEF73BFE069B68
:1020A000C01AA04232D32A68536823F0E003536079
:1020B0006B68B3F5827F0BD0AB6AB3F5005F14D0C9
:1020C000012385F85D30002385F85C30032025E08E
:1020D000AB68B3F5004F02D0B3F5806FECD12A683E
:1020E000136823F040031360E6E72A68136823F4BB
:1020F000005313602A68136843F400531360DFE74A
:102100000123B34209D0B4F1FF3FC5D12B689B68CE
:1021100037EA0303F4D00023F3E70020F8BDF0B55D
:1021200083B007460C4615461E4602E0B6F1FF3F57
:1021300010D13A6893682340AB423FD0B4F5C06FEA
:10214000F4D1002DF2D1137BDBB28DF807309DF86E
:102150000730EBE72EB1FEF7DDFD089BC01AB04259
:10216000E7D33A68536823F0E00353607B68B3F524
:10217000827F0BD0BB6AB3F5005F14D0012387F8D0
:102180005D30002387F85C30032018E0BB68B3F5AE
:10219000004F02D0B3F5806FECD13A68136823F09A
:1021A00040031360E6E73A68136823F400531360B2
:1021B0003A68136843F400531360DFE7002003B06C
:1021C000F0BD70B582B004460D46164600920B462F
:1021D00000224FF4C051FFF7A2FFB8B900962B467A
:1021E000002280212046FFF751FFB8B900962B4608
:1021F00000224FF4C0612046FFF791FF034650B123
:10220000236E43F020032366032304E0236E43F090
:10221000200323660323184602B070BD236E43F0EB
:10222000200323660323F6E7002800F0148110B58D
:1022300004460368894A93420CD0A2F5784293423F
:1022400008D002F58062934204D040F21B1184480A
:1022500002F0B0FE63681BB1B3F5827F40F0B3803B
:10226000A36833B1B3F5806F03D0B3F5004F40F0EE
:10227000B080E368B3F5706F24D0B3F5606F21D000
:10228000B3F5506F1ED0B3F5406F1BD0B3F5306F70
:1022900018D0B3F5206F15D0B3F5106F12D0B3F589
:1022A000006F0FD0B3F5E06F0CD0B3F5C06F09D05D
:1022B000B3F5A06F06D0B3F5806F03D0B3F5407FC0
:1022C00040F08D80A369B3F5007F04D01BB1B3F556
:1022D000802F40F08A80636B082B02D0002B40F0E7
:1022E0008A80E3696BB1082B0BD0102B09D0182B17
:1022F00007D0202B05D0282B03D0302B01D0382B32
:102300007FD1236A13B1802B40F08180636A13B1BF
:10231000102B40F08280636A43B9236913B1022B0A
:1023200040F081806369012B00F283800023A36267
:1023300094F85D30002B00F08280022384F85D3039
:102340002268136823F040031360E368B3F5E06F7D
:102350007BD90022B3F5706F04D0B3F5E06F01D0E4
:102360000021A162216B21B9B3F5E06F70D902237E
:1023700023636368A1680B4321690B4361690B43C5
:10238000A16901F400710B43E1690B43216A0B431E
:10239000A06A216803430B60638B03F00403616A46
:1023A0000B43616B0B43E1680B43216813434B60A4
:1023B0002268D36923F40063D361002020660123DF
:1023C00084F85D3010BD4FF48E71254802F0F2FDA7
:1023D00046E740F21D11224802F0ECFD49E74FF4B8
:1023E0008F711F4802F0E6FD6CE740F21F111C4898
:1023F00002F0E0FD6FE74FF49071194802F0DAFD4A
:102400006FE740F22111164802F0D4FD79E74FF44E
:102410009171134802F0CEFD78E740F22311104885
:1024200002F0C8FD77E74FF493710D4802F0C2FD4A
:1024300078E740F227110A4802F0BCFD76E784F8FD
:102440005C30204602F0E2FD77E74FF4805281E7EE
:10245000012323638DE70120704700BF0030014056
:10246000449700082DE9F04182B004460D46174616
:102470001E46836813B1B3F5004F19D194F85C3050
:10248000012B00F0D880012384F85C30FEF742FC79
:10249000804694F85D30DBB2012B0FD0022001237F
:1024A00084F85D30002384F85C3002B0BDE8F08130
:1024B0004FF4FF71614802F07DFDDFE7002D00F071
:1024C000B080002F00F0AF80032384F85D3000233C
:1024D0002366A563A787E7872364A4F84430A4F89C
:1024E00046302365E364A368B3F5004F1BD023682F
:1024F0001A6812F0400F03D11A6842F040021A60C5
:10250000E368B3F5E06F32D963681BB1E38F9BB228
:10251000012B13D1236835F8022BDA60E38F013BDE
:102520009BB2E3870AE02268136843F48043136098
:10253000DDE7002E79D0B6F1FF3F10D1E38F9BB2DB
:10254000002B59D023689A6812F0020FF1D035F8A9
:10255000022BDA60E38F013B9BB2E387EEE7FEF7E5
:10256000D9FBA0EB0800B042E8D3032097E76368EB
:102570001BB1E38F9BB2012B22D1E38F9BB2012BC6
:1025800008D9236835F8022BDA60E38F023B9BB24F
:10259000E38715E023682A781A73E38F013B9BB227
:1025A000E38701350CE02A781A73E38F013B9BB275
:1025B000E387013504E0002E39D0B6F1FF3F13D197
:1025C000E38F9BB2C3B123689A6812F0020FF2D076
:1025D000E28F92B2012AE6D935F8022BDA60E38F56
:1025E000023B9BB2E387EBE7FEF794FBA0EB08000E
:1025F000B042E5D3032052E7424631462046FFF77A
:10260000E0FD08B120232366A36833B90193236852
:10261000DA6801929B680193019B236E4BB90020FD
:102620003DE701203BE7012039E7032037E703209E
:1026300035E7012033E7022037E700BF4497000861
:1026400010B4036A046A24F001040462846924F06B
:10265000F00444EA021223F00A030B43826103628E
:102660005DF8044B704730B4046A24F0100404622F
:102670008469056A24F4407444EA022222F4704218
:102680001B039BB21A4325F0A005090101F0A0012C
:1026900029438261016230BC704710B4036A23F0A1
:1026A000100303628469036A24F4704444EA02322A
:1026B00023F0A00343EA0113826103625DF8044B37
:1026C000704730B4046A24F480740462C469056AF3
:1026D00024F00304224322F0F0021B01DBB21A4370
:1026E00025F42065090201F420612943C2610162D9
:1026F00030BC704730B4046A24F480540462C46966
:10270000056A24F4407444EA022222F470421B0356
:102710009BB21A4325F42045090301F420412943C3
:10272000C261016230BC7047836823F0700341F0DE
:102730000701194381607047704770477047000078
:1027400090F83C30012B00F0928010B50446012334
:1027500080F83C300C2900F28880DFE801F0078621
:10276000868631868686508686866B000368414A57
:1027700093421FD0B3F1804F1CD0A2F59432934204
:1027800018D002F58062934214D002F5963293423B
:1027900010D002F5406293420CD002F58062934261
:1027A00008D002F58062934204D04FF4875132483A
:1027B00002F000FC2368586B002384F83C3010BD05
:1027C00003682C4A934217D0B3F1804F14D0A2F57E
:1027D0009432934210D002F5806293420CD002F5FD
:1027E0009632934208D002F54062934204D041F2FF
:1027F000EA01214802F0DEFB2368986BDCE70368FE
:102800001C4A934213D0B3F1804F10D0A2F59432FA
:1028100093420CD002F58062934208D002F59632C2
:10282000934204D041F2F501134802F0C3FB236840
:10283000D86BC1E703680F4A934213D0B3F1804FBE
:1028400010D0A2F5943293420CD002F580629342EC
:1028500008D002F59632934204D04FF488510648CE
:1028600002F0A8FB2368186CA6E70020A4E702206A
:10287000704700BF002C01407C97000870477047EC
:10288000704710B5044603681A6912F0020F11D0A0
:10289000DA6812F0020F0DD06FF002021A61012304
:1028A000037703689B6913F0030F79D002F0BCF93A
:1028B0000023237723681A6912F0040F12D0DA6814
:1028C00012F0040F0ED06FF004021A610223237776
:1028D00023689B6913F4407F68D0204602F0A4F976
:1028E0000023237723681A6912F0080F12D0DA68E0
:1028F00012F0080F0ED06FF008021A61042323773C
:102900002368DB6913F0030F57D0204602F08CF9DF
:102910000023237723681A6912F0100F12D0DA68A7
:1029200012F0100F0ED06FF010021A6108232377F7
:102930002368DB6913F4407F46D0204602F074F927
:102940000023237723681A6912F0010F03D0DA6895
:1029500012F0010F3FD123681A6912F0800F03D0E3
:10296000DA6812F0800F3DD123681A6912F4807F73
:1029700003D0DA6812F0800F3BD123681A6912F095
:10298000400F03D0DA6812F0400F39D123681A697A
:1029900012F0200F03D0DA6812F0200F37D110BDEB
:1029A000FFF76CFF2046FFF76AFF81E72046FFF73D
:1029B00065FF2046FFF763FF92E72046FFF75EFFC3
:1029C0002046FFF75CFFA3E72046FFF757FF2046AE
:1029D000FFF755FFB4E76FF001021A61204602F0DD
:1029E00007F9B8E76FF080021A61204601F0BFFED8
:1029F000BAE76FF480721A61204601F0B9FEBCE7B5
:102A00006FF040021A612046FFF73AFFBEE76FF011
:102A100020021A61204601F0A9FEC0E703682C4A93
:102A200090420ED0B0F1804F0BD0A2F5943290427C
:102A300007D002F58062904203D002F596329042B0
:102A400003D123F070034A681343214A90421AD0FD
:102A5000B0F1804F17D0A2F59432904213D002F516
:102A6000806290420FD002F5963290420BD002F570
:102A70004062904207D002F58062904203D002F596
:102A80008062904203D123F44073CA68134323F059
:102A900080034A69134303608B68C3620B688362D7
:102AA0000B4B98420FD003F5006398420BD003F50F
:102AB0004063984207D003F58063984203D003F542
:102AC0008063984201D10B6903630123436170471E
:102AD000002C0140002866D010B504460368334A34
:102AE000934226D0B3F1804F23D0A2F59432934283
:102AF0001FD002F5806293421BD002F50062934220
:102B000017D002F58062934213D002F590329342BF
:102B10000FD002F5406293420BD002F580629342DF
:102B200007D002F58062934203D0D521204802F0FD
:102B300041FAA3683BB1102B05D0202B03D0402BCA
:102B400001D0602B1AD123692BB1B3F5807F02D05D
:102B5000B3F5007F17D1A3690BB1802B18D194F87E
:102B60003D30D3B1022384F83D30211D2068FFF7AA
:102B700055FF012384F83D30002010BDD6210C48BC
:102B800002F018FADFE7D721094802F013FAE2E76A
:102B9000D821074802F00EFAE1E784F83C302046DD
:102BA00002F068FBDEE70120704700BF002C014007
:102BB0007C97000800286AD010B504460368354A9F
:102BC000934227D0B3F1804F24D0A2F594329342A0
:102BD00020D002F5806293421CD002F5006293423D
:102BE00018D002F58062934214D002F590329342DD
:102BF00010D002F5406293420CD002F580629342FD
:102C000008D002F58062934204D040F2EE312248AF
:102C100002F0D0F9A3683BB1102B05D0202B03D0D4
:102C2000402B01D0602B1AD123692BB1B3F5807FE3
:102C300002D0B3F5007F18D1A3690BB1802B1AD154
:102C400094F83D30EBB1022384F83D30211D20681B
:102C5000FFF7E4FE012384F83D30002010BD40F270
:102C6000EF310D4802F0A6F9DEE74FF47C710A4817
:102C700002F0A0F9E0E740F2F131074802F09AF9DA
:102C8000DEE784F83C302046FFF756FDDBE7012005
:102C9000704700BF002C01407C97000800286AD0D4
:102CA00010B504460368354A934227D0B3F1804FEC
:102CB00024D0A2F59432934220D002F58062934250
:102CC0001CD002F50062934218D002F58062934254
:102CD00014D002F59032934210D002F54062934234
:102CE0000CD002F58062934208D002F580629342D4
:102CF00004D04FF4BE61224802F05CF9A3683BB1F6
:102D0000102B05D0202B03D0402B01D0602B1AD1E3
:102D100023692BB1B3F5807F02D0B3F5007F18D1C2
:102D2000A3690BB1802B1AD194F83D30EBB102238B
:102D300084F83D30211D2068FFF770FE012384F8E0
:102D40003D30002010BD40F2F1510D4802F032F943
:102D5000DEE740F2F2510A4802F02CF9E0E740F2D7
:102D6000F351074802F026F9DEE784F83C302046AC
:102D7000FFF7E3FCDBE70120704700BF002C0140B8
:102D80007C97000800287DD038B504460D460368BE
:102D90003D4A934227D0B3F1804F24D0A2F594321C
:102DA000934220D002F5806293421CD002F500626B
:102DB000934218D002F58062934214D002F590320B
:102DC000934210D002F5406293420CD002F580622B
:102DD000934208D002F58062934204D04FF4FA6126
:102DE0002A4802F0E7F8A3683BB1102B05D0202B4E
:102DF00003D0402B01D0602B26D123692BB1B3F532
:102E0000807F02D0B3F5007F24D1082D00D03DBBD8
:102E1000A3690BB1802B29D194F83D3063B3022311
:102E200084F83D30211D2068FFF7F8FD2268136803
:102E300023F008031360236819680D431D60012304
:102E400084F83D30002038BD40F2D1710F4802F0C7
:102E5000B1F8D2E740F2D2710C4802F0ABF8D4E7F7
:102E600040F2D371094802F0A5F8D1E740F2D471DD
:102E7000064802F09FF8CFE784F83C302046FFF781
:102E80005DFCCCE701207047002C01407C970008D6
:102E90002DE9F04104460D46036A23F00103036265
:102EA000066A4768836923F4803323F073030A6852
:102EB00042EA030826F002038E681E432C4B984218
:102EC0000FD003F5006398420BD003F5406398429E
:102ED00007D003F58063984203D003F580639842DE
:102EE00009D1EB680BB1082B30D126F00806EB684E
:102EF0001E4326F004061E4B9C420FD003F50063D0
:102F00009C420BD003F540639C4207D003F58063DD
:102F10009C4203D003F580639C420FD1AB69B3F5AB
:102F2000007F00D0C3B96B69B3F5807F00D0CBB907
:102F300027F440776B693B43AF691F436760C4F870
:102F400018806B6863632662BDE8F08141F29B21C3
:102F5000084802F02FF8C8E741F2A821054802F01E
:102F600029F8E0E741F2A921024802F023F8DFE75F
:102F7000002C01407C9700082DE9F04104460E46E4
:102F8000036A23F010030362056A4768836923F02C
:102F9000807323F4E6430A6843EA022825F02005FB
:102FA0008B6845EA0315284B984203D003F500636C
:102FB00098420AD1F3680BB1082B33D125F0800574
:102FC000F36845EA031525F040051F4B9C420FD0DE
:102FD00003F500639C420BD003F540639C4207D08D
:102FE00003F580639C4203D003F580639C4211D1BA
:102FF000B369B3F5007F00D0D3B97369B3F5807FAF
:1030000000D0DBB927F44067736947EA8307B369E7
:1030100047EA83076760C4F818807368A363256272
:10302000BDE8F08141F2E521084801F0C3FFC5E7A2
:1030300041F2F321054801F0BDFFDEE741F2F42142
:10304000024801F0B7FFDDE7002C01407C97000843
:103050002DE9F04104460E46036A23F480730362AF
:10306000056A4768C36923F4803323F073030A6851
:1030700042EA030825F400758B6845EA0325284BCE
:10308000984203D003F5006398420AD1F3680BB16C
:10309000082B33D125F40065F36845EA032525F4B0
:1030A00080651F4B9C420FD003F500639C420BD000
:1030B00003F540639C4207D003F580639C4203D034
:1030C00003F580639C4211D1B369B3F5007F00D052
:1030D000D3B97369B3F5807F00D0DBB927F44057CB
:1030E000736947EA0317B36947EA03176760C4F8CF
:1030F0001C807368E3632562BDE8F08141F23431DE
:10310000084801F057FFC5E741F24131054801F099
:1031100051FFDEE741F24231024801F04BFFDDE7AB
:10312000002C01407C9700082DE9F04104460F4631
:10313000036A23F480530362056AD0F80480C369EC
:1031400023F0807323F4E6430E6843EA062625F451
:1031500000558B6845EA0335154B98420FD003F5AF
:10316000006398420BD003F54063984207D003F503
:103170008063984203D003F58063984209D17B694C
:10318000B3F5807F00D063B928F480487B6948EAB2
:103190008318C4F80480E6617B6823642562BDE877
:1031A000F08141F28231034801F004FFECE700BFF7
:1031B000002C01407C97000870B4046A24F00104DC
:1031C00004628469056A154EB04215D0B0F1804F93
:1031D00012D0A6F59436B0420ED006F58066B04205
:1031E0000AD006F59636B04206D006F54066B042E3
:1031F00002D044F0010202E024F00304224322F052
:10320000F0021B01DBB2134325F00A0201F00A01B0
:1032100011438361016270BC704700BF002C014004
:1032200070B504460D46164603687E4A93421FD089
:10323000B3F1804F1CD0A2F59432934218D002F51E
:103240008062934214D002F59632934210D002F578
:10325000406293420CD002F58062934208D002F59E
:103260008062934204D040F6DE316F4801F0A2FE46
:103270002B681BB1022B01D00A2B4AD16B68013B92
:10328000022B4CD8AB682BB1042B03D0082B01D0F8
:103290000C2B4AD1EB680F2B4DD894F83C30012B06
:1032A00000F0BD80012384F83C30022384F83D30D7
:1032B000002E46D0042E5BD0082E00F087802368B5
:1032C000584A934213D0B3F1804F10D0A2F59432F4
:1032D00093420CD002F58062934208D002F59632F8
:1032E000934204D040F619414F4801F063FEEB6869
:1032F0006A6829682068FFF7FDF92268D36923F41A
:103300004063D3612268D369A96843EA0123D3618A
:1033100027E040F6DF31444801F04CFEAEE74FF4C1
:103320003E61414801F046FEACE740F6E1313E48DF
:1033300001F040FEAEE740F6E2313B4801F03AFED4
:10334000ABE7EB686A6829682068FFF735FF2268F9
:10335000936923F00C03936122689369A9680B4376
:103360009361012384F83D30002084F83C0070BD57
:1033700023682C4A934217D0B3F1804F14D0A2F5A2
:103380009432934210D002F5806293420CD002F541
:103390009632934208D002F54062934204D040F640
:1033A000F931214801F006FEEB686A682968206857
:1033B000FFF759F92268936923F440639361226807
:1033C0009369A96843EA01239361CAE72368154A10
:1033D000934213D0B3F1804F10D0A2F594329342B0
:1033E0000CD002F58062934208D002F596329342E7
:1033F00004D040F609410C4801F0DCFDEB686A6836
:1034000029682068FFF75DF92268D36923F00C036F
:10341000D3612268D369A9680B43D361A1E7022075
:10342000A5E700BF002C01407C97000810B4846819
:1034300024F47F4442EA03230B43234383605DF873
:10344000044B704738B590F83C30012B00F06E8289
:103450000D460446012380F83C30022380F83D30BD
:103460000B68B3F5805F11D0B3F5005F0ED06BB180
:10347000102B0BD0202B09D0302B07D0402B05D0A0
:10348000502B03D0602B01D0702B48D1226891685B
:10349000B84B0B4093602B68402B00F0C78144D998
:1034A000702B00F00F8100F28F80502B00F07481A0
:1034B000602B40F000812368AF4A934217D0B3F1EC
:1034C000804F14D0A2F59432934210D002F580625E
:1034D00093420CD002F59632934208D002F5406236
:1034E000934204D041F21A01A44801F063FD6B68D5
:1034F000B3F5004F05D023B1022B02D00A2B40F0C8
:103500008981EB680F2B00F28B81EA68696820687B
:10351000FFF7C3F860212068FFF706F9CBE040F61B
:10352000C871964801F046FDB0E7102B00F0BC8151
:1035300026D9202B00F0D981302B40F0BC802368A5
:103540008D4A934217D0B3F1804F14D0A2F5943234
:10355000934210D002F5806293420CD002F596326D
:10356000934208D002F54062934204D041F25001E8
:10357000824801F01FFD30212068FFF7D5F89AE05E
:10358000002B40F0988023687B4A934217D0B3F118
:10359000804F14D0A2F59432934210D002F580628D
:1035A00093420CD002F59632934208D002F5406265
:1035B000934204D041F23801704801F0FBFC002135
:1035C0002068FFF7B1F876E0B3F5805F40D0B3F53F
:1035D000005F70D12368684A934213D0B3F1804FE3
:1035E00010D0A2F5943293420CD002F5806293423F
:1035F00008D002F59632934204D040F6F7715F4846
:1036000001F0D8FCAB684BB1B3F5805F06D0B3F5E1
:10361000005F03D0B3F5405F40F0A5806B68B3F561
:10362000004F05D023B1022B02D00A2B40F0A88016
:10363000EB680F2B00F2AA80EB686A68A968206823
:10364000FFF7F4FE2268936843F48043936032E00E
:103650002368494A934227D0B3F1804F24D0A2F582
:103660009432934220D002F5806293421CD002F53E
:103670000062934218D002F58062934214D002F5A2
:103680009032934210D002F5406293420CD002F582
:103690008062934208D002F58062934204D040F6E3
:1036A000D471364801F086FC2268936823F4803395
:1036B00023F007039360012384F83D30002084F851
:1036C0003C0038BD23682C4A934213D0B3F1804F9D
:1036D00010D0A2F5943293420CD002F5806293424E
:1036E00008D002F59632934204D040F6DD712348AB
:1036F00001F060FCAB6843B1B3F5805F05D0B3F572
:10370000005F02D0B3F5405F1BD16B68B3F5004F8B
:1037100004D01BB1022B01D00A2B18D1EB680F2B60
:103720001BD8EB686A68A9682068FFF77FFE2268EB
:10373000936823F4803323F0770343F07703936097
:10374000B9E74FF47E610D4801F034FCDDE740F647
:10375000E1710A4801F02EFCE0E740F6E27107480B
:1037600001F028FCDDE740F6FA71044801F022FC84
:1037700054E700BF8800FEFF002C01407C97000842
:1037800040F6FB716A4801F015FC51E740F6FC7108
:10379000674801F00FFC4FE72368664A934217D051
:1037A000B3F1804F14D0A2F59432934210D002F5B9
:1037B000806293420CD002F59632934208D002F513
:1037C0004062934204D041F20B01594801F0F2FBF0
:1037D0006B68B3F5004F04D01BB1022B01D00A2B4C
:1037E0000CD1EB680F2B0FD8EA6869682068FEF7E8
:1037F00027FF50212068FEF797FF5CE741F20E019A
:103800004B4801F0D7FBECE741F20F01484801F0CB
:10381000D1FBE9E741F21D01454801F0CBFB70E621
:1038200041F21E01424801F0C5FB6EE62368414AA1
:10383000934217D0B3F1804F14D0A2F59432934243
:1038400010D002F5806293420CD002F5963293427A
:1038500008D002F54062934204D041F22901344875
:1038600001F0A8FB6B68B3F5004F04D01BB1022B2D
:1038700001D00A2B0CD1EB680F2B0FD8EA686968CE
:103880002068FEF7DDFE40212068FEF74DFF12E7BD
:1038900041F22C01264801F08DFBECE741F22D01AD
:1038A000234801F087FBE9E72368224A934217D0B7
:1038B000B3F1804F14D0A2F59432934210D002F5A8
:1038C000806293420CD002F59632934208D002F502
:1038D0004062934204D04FF48251154801F06AFBD4
:1038E00010212068FEF720FFE5E62368114A934285
:1038F00017D0B3F1804F14D0A2F59432934210D078
:1039000002F5806293420CD002F59632934208D0C1
:1039100002F54062934204D041F24801044801F0AC
:1039200049FB20212068FEF7FFFEC4E60220C8E61E
:103930007C970008002C014038B505460C4601680C
:103940008A6822F070026368134323F4803323F003
:103950000703226813438B606368302B00F07E817D
:103960003ED9502B00F0B3805FD9602B00F0F1807E
:10397000702B34D10368B74A934213D0B3F1804F10
:1039800010D0A2F5943293420CD002F5806293429B
:1039900008D002F59632934204D041F2B731AE48D6
:1039A00001F008FBE36843B1B3F5805F05D0B3F5E0
:1039B000005F02D0B3F5405F71D1A368B3F5004F4B
:1039C00004D01BB1022B01D00A2B6ED123690F2B1F
:1039D00071D82369A268E1682868FFF727FD38BD20
:1039E000102B00F0F080202B00F01081002BF6D17E
:1039F0000368984A9342F2D0B3F1804FEFD0A2F51A
:103A000094329342EBD002F580629342E7D002F504
:103A100096329342E3D002F540629342DFD041F206
:103A2000F8318D4801F0C6FAD9E7402BD7D10368A9
:103A3000884A93421FD0B3F1804F1CD0A2F5943234
:103A4000934218D002F58062934214D002F5963268
:103A5000934210D002F5406293420CD002F580628E
:103A6000934208D002F58062934204D041F2C631FD
:103A7000794801F09FFA23690F2B22D82B68196A25
:103A80001A6A22F001021A622A68936923F0F0038D
:103A9000206943EA001393612B6819629FE741F2A2
:103AA000B8316D4801F086FA87E741F2B9316A48CA
:103AB00001F080FA8AE741F2BA31674801F07AFAF8
:103AC00087E741F2C731644801F074FAD6E703682A
:103AD000604A93421FD0B3F1804F1CD0A2F59432BC
:103AE000934218D002F58062934214D002F59632C8
:103AF000934210D002F5406293420CD002F58062EE
:103B0000934208D002F58062934204D041F2DC3146
:103B1000514801F04FFAA368B3F5004F04D01BB130
:103B2000022B01D00A2B08D123690F2B0BD8226955
:103B3000A1682868FEF784FD51E741F2DD3146486F
:103B400001F038FAF0E741F2DE31434801F032FA91
:103B5000EDE703683F4A934217D0B3F1804F14D08A
:103B6000A2F59432934210D002F5806293420CD0B9
:103B700002F59632934208D002F54062934204D097
:103B800041F2EA31344801F015FAA368B3F5004F69
:103B900004D01BB1022B01D00A2B08D123690F2BB3
:103BA0000BD82269A1682868FEF777FD17E741F274
:103BB000EB31294801F0FEF9F0E741F2EC312648FB
:103BC00001F0F8F9EDE70368224A93423FF407AFAA
:103BD000B3F1804F3FF403AFA2F5943293423FF428
:103BE000FEAE02F5806293423FF4F9AE02F59632E2
:103BF00093423FF4F4AE02F5406293423FF4EFAEDD
:103C000041F2FF31144801F0D5F9E8E60368114AA2
:103C100093423FF4E4AEB3F1804F3FF4E0AEA2F53F
:103C2000943293423FF4DBAE02F5806293423FF45C
:103C3000D6AE02F5963293423FF4D1AE02F5406221
:103C400093423FF4CCAE41F20641034801F0B2F991
:103C5000C5E600BF002C01407C9700080368114AAC
:103C600093423FF4BCAEB3F1804F3FF4B8AEA2F53F
:103C7000943293423FF4B3AE02F5806293423FF434
:103C8000AEAE02F5963293423FF4A9AE02F5406221
:103C900093423FF4A4AE41F20D41034801F08AF98A
:103CA0009DE600BF002C01407C97000870B50446DB
:103CB0000D460368314A934217D0B3F1804F14D0B8
:103CC000A2F59432934210D002F5806293420CD058
:103CD00002F59632934208D002F54062934204D036
:103CE00041F28F01264801F065F92B6853B1042B8E
:103CF00008D0052B06D0062B04D0072B02D0B3F535
:103D0000803F2DD16B686BB1102B0BD0202B09D0CD
:103D1000302B07D0402B05D0502B03D0602B01D087
:103D2000702B23D194F83C30012B25D0012684F848
:103D30003C60022384F83D3029462046FFF7FCFD15
:103D40002268D36823F04003D3602268D36823F449
:103D50008043D36084F83D60002084F83C0070BD4F
:103D600041F29001064801F025F9CBE741F29101BB
:103D7000034801F01FF9D5E70220F0E7002C0140CD
:103D80007C97000870B504460D461646204B9842B5
:103D90001FD0B0F1804F1CD0A3F59433984218D0B7
:103DA00003F58063984214D003F59633984210D0FF
:103DB00003F5406398420CD003F58063984208D025
:103DC00003F58063984204D041F27351114801F029
:103DD000F1F885B1042D0ED0082D0CD00C2D0AD091
:103DE000102D08D0142D06D03C2D04D041F2745172
:103DF000084801F0DFF8012303FA05F2236A23EAF9
:103E000002032362236A06FA05F51D43256270BD8D
:103E1000002C01407C97000838B504460D46036825
:103E2000404A93423DD0B3F1804F47D03E4A93423F
:103E30004DD03E4A934253D03D4A934259D03D4AD9
:103E4000934263D03C4A934265D03C4A934265D04A
:103E500040F24F413A4801F0ADF80122294620686E
:103E6000FFF790FF23682F4A93420FD002F50062BC
:103E700093420BD002F54062934207D002F5806274
:103E8000934203D002F58062934203D15A6C42F40C
:103E900000425A642268136843F001031360002053
:103EA00038BD0029D9D00429D7D00829D5D00C296C
:103EB000D3D01029D1D01429B5D1CEE7002DCCD044
:103EC000042DCAD0082DC8D00C2DAFD1C5E7002DC8
:103ED000C3D0042DC1D0082DBFD00C2DA9D1BCE773
:103EE000002DBAD0042DB8D0082DB6D00C2DA3D1FA
:103EF000B3E7002DB1D0042DAFD0082DADD00C2DDF
:103F0000ABD0102DA9D0142D99D1A6E7002DA4D0A7
:103F1000042D97D1A1E7002D9FD096E7002D9CD0CE
:103F200096E700BF002C014000040040000800405C
:103F3000003401400040014000440140004801407D
:103F40007C97000838B505460C460368454A9342FD
:103F500024D0B3F1804F2ED0434A934234D0434A09
:103F600093423AD0424A934240D0424A93424AD086
:103F7000414A93424CD0414A93424CD040F2856131
:103F80003F4801F017F80C2C4DD8DFE804F0474CFF
:103F90004C4C584C4C4C5E4C4C4C64000029F2D0BC
:103FA0000429F0D00829EED00C29ECD01029EAD051
:103FB0001429CED1E7E7002CE5D0042CE3D0082C5F
:103FC000E1D00C2CC8D1DEE7002CDCD0042CDAD0F8
:103FD000082CD8D00C2CC2D1D5E7002CD3D0042C7F
:103FE000D1D0082CCFD00C2CBCD1CCE7002CCAD01F
:103FF000042CC8D0082CC6D00C2CC4D0102CC2D095
:10400000142CB2D1BFE7002CBDD0042CB0D1BAE73C
:10401000002CB8D0AFE7002CB5D0AFE72A68D36842
:1040200043F00203D360012221462868FFF7AAFE6D
:104030002A68136843F001031360002038BD2A6822
:10404000D36843F00403D360EDE72A68D36843F0F4
:104050000803D360E7E72A68D36843F01003D3600E
:10406000E1E700BF002C01400004004000080040D0
:10407000003401400040014000440140004801403C
:104080007C97000830B4036A23F480330362036A28
:104090004468426D22F4803222F070020D682A4397
:1040A00023F400338D6843EA05430F4DA8420FD037
:1040B00005F50065A8420BD005F54065A84207D07C
:1040C00005F58065A84203D005F58065A84204D1B6
:1040D00024F480344D6944EA0524446042654A680A
:1040E0008265036230BC7047002C014030B4036A23
:1040F00023F480130362036A4468426D22F08072E5
:1041000022F4E0420D6842EA052223F400138D6890
:1041100043EA05530F4DA8420FD005F50065A842AC
:104120000BD005F54065A84207D005F58065A8428B
:1041300003D005F58065A84204D124F480244D699C
:1041400044EA8524446042654A68C265036230BC23
:10415000704700BF002C014070B504460D4616465E
:104160005AB1042A09D0082A07D00C2A05D0102AEF
:1041700003D0142A01D03C2A3CD12B68602B0DD0EF
:10418000702B0BD09C4A934208D01032934205D03A
:104190001032934202D01032934231D1AB680BB14E
:1041A000022B33D12B690BB1042B35D194F83C3061
:1041B000012B00F04981012384F83C30022384F86C
:1041C0003D30142E65D8DFE816F02D006400640041
:1041D00064006B006400640064009C006400640080
:1041E0006400C800640064006400F50064006400BA
:1041F00064001D0140F28A61804800F0DBFEBCE7EC
:1042000040F28B617D4800F0D5FEC7E740F28C613B
:104210007A4800F0CFFEC5E740F28D61774800F0A4
:10422000C9FEC3E72368764A93421FD0B3F1804F9B
:104230001CD0A2F59432934218D002F580629342CA
:1042400014D002F59632934210D002F540629342A8
:104250000CD002F58062934208D002F5806293424E
:1042600004D040F29961654800F0A4FE2946206818
:10427000FEF70EFE2268936943F0080393612268FB
:10428000936923F0040393612268936929690B43BE
:104290009361012384F83D30002084F83C0070BD18
:1042A0002368574A934217D0B3F1804F14D0A2F538
:1042B0009432934210D002F5806293420CD002F502
:1042C0009632934208D002F54062934204D040F205
:1042D000AA614A4800F06EFE29462068FEF74CFEAF
:1042E0002268936943F4006393612268936923F41D
:1042F0008063936122689369296943EA012393618A
:10430000C7E723683E4A934213D0B3F1804F10D0E1
:10431000A2F5943293420CD002F58062934208D009
:1043200002F59632934204D040F2BB61334800F06C
:1043300041FE29462068FEF78BFE2268D36943F0D0
:104340000803D3612268D36923F00403D361226890
:10435000D36929690B43D3619BE72368284A9342B9
:1043600013D0B3F1804F10D0A2F5943293420CD009
:1043700002F58062934208D002F59632934204D04F
:1043800040F2CC611D4800F015FE29462068FEF77A
:10439000CBFE2268D36943F40063D3612268D369FA
:1043A00023F48063D3612268D369296943EA012336
:1043B000D3616EE72368124A934208D002F5006287
:1043C000934204D040F2DD610C4800F0F3FD294631
:1043D0002068FFF757FE2268536D43F008035365CA
:1043E0002268536D23F0040353652268536D2969D5
:1043F0000B4353654DE700BF40000100B497000830
:10440000002C01402368114A934208D002F5006253
:10441000934204D040F2EE610D4800F0CBFD2946F6
:104420002068FFF763FE2268536D43F40063536511
:104430002268536D23F4806353652268536D2969A4
:1044400043EA0123536524E7022028E7002C0140BA
:10445000B4970008F8B504460D4603684F4A9342E6
:104460001FD0B3F1804F1CD0A2F59432934218D0E4
:1044700002F58062934214D002F50062934210D09C
:1044800002F5806293420CD002F59032934208D03C
:1044900002F54062934204D040F21771404800F0A8
:1044A00089FD2B686BB1102B0BD0202B09D0302B42
:1044B00007D0402B05D0502B03D0602B01D0702BA0
:1044C0005DD1AB68802B01D0002B5ED194F83C30DD
:1044D000012B60D0012384F83C3023685E689F681C
:1044E0002E4A934203D002F50062934237D16B68A3
:1044F0008BB3B3F5801F2ED0B3F5001F2BD0B3F5CF
:10450000401F28D0B3F5800F25D0B3F5A00F22D0DF
:10451000B3F5C00F1FD0B3F5E00F1CD0B3F5000FFB
:1045200019D0B3F5100F16D0B3F5200F13D0B3F593
:10453000300F10D0B3F5400F0DD0B3F5500F0AD0A7
:10454000B3F5600F07D0B3F5700F04D04FF4E561F9
:10455000134800F02FFD26F470066B681E4326F00A
:1045600070062B681E4327F08007AB683B43226828
:10457000566022689360002084F83C00F8BD4FF438
:10458000E361074800F016FD9BE740F2197104480B
:1045900000F010FD9AE70220F0E700BF002C014078
:1045A000B497000870B505460C4603686D4A9342FF
:1045B00014D002F50062934210D002F5406293429B
:1045C0000CD002F58062934208D002F580629342DB
:1045D00004D040F28471644800F0ECFC2368B3F529
:1045E000006F01D0002B79D16368B3F5806F01D0E3
:1045F000002B79D1A36843B1B3F5807F05D0B3F523
:10460000007F02D0B3F5407F74D1E368FF2B77D8E9
:104610002369B3F5805F01D0002B77D1636913B1B3
:10462000B3F5005F78D1A3690F2B7BD8A36AB3F5EC
:10463000804F01D0002B7BD195F83C30012B00F04E
:104640008F80012385F83C30E36823F44073A2682F
:10465000134323F480636268134323F400632268E6
:10466000134323F480532269134323F400536269F4
:10467000134323F48043A66A334323F400431E43C9
:1046800026F47026A36946EA03462B68354A93420E
:1046900003D002F5006293421AD1E369B3F1807F3F
:1046A00001D0002B4AD1236A13B1B3F1007F4BD163
:1046B000636A0F2B4ED826F47006636A46EA0356E7
:1046C00026F08076E3691E4326F00076236A1E43B7
:1046D0002B685E64002085F83C0070BD40F2857157
:1046E000214800F067FC7FE740F286711E4800F029
:1046F00061FC7FE740F287711B4800F05BFC84E7B8
:104700004FF4F161184800F055FC81E740F28971DF
:10471000154800F04FFC81E740F28A71124800F022
:1047200049FC80E740F28B710F4800F043FC7DE7C5
:1047300040F28C710C4800F03DFC7DE740F2A17125
:10474000094800F037FCAEE740F2A271064800F0DD
:1047500031FCADE740F2A371034800F02BFCAAE75F
:104760000220BAE7002C0140B49700087047704758
:104770007047000010B588B0184B5A6942F48002A7
:104780005A615A6902F480020092009A5A6942F40E
:1047900000325A615A6902F400320192019A5A6950
:1047A00042F480225A615B6903F480230293029BE6
:1047B0000B4C00224FF4A8412046FCF701FD4FF4BA
:1047C000A84303930123049300230593069303A9AD
:1047D0002046FCF783FB08B010BD00BF001002406C
:1047E00000040048F0B585B00A9CB4F90A50002DC9
:1047F0000DDBB4F90860002E09DB0636B4F904704D
:10480000BE4204D80835B4F90660B54201D905B0F6
:10481000F0BDB4F90050B4F9026002EB420462004A
:104820000B9C0294B3FA83F35B0901930823009372
:104830000623034C22443144284400F0A8F8E6E75C
:104840003090000810815181704782B08068002349
:1048500082B262F30F03000C60F31F43184602B0EC
:10486000704708B543890933438102230381037BE1
:1048700003B908BD084600F06FF9FAE7F0B583B058
:1048800005460F4614461E4614E0B4F90800B4F974
:104890000A10019600943B46FFF7A4FF0EE02B7828
:1048A0000A2B17D0B4F90A300833B4F90620934222
:1048B0001ED801352A78DAB10A2AE6D123890633CF
:1048C0001BB223810633B4F904209342E7D96B78F5
:1048D0000A2BE4D031462046FFF7C3FF00F0FAFD73
:1048E0006B781844437813F0080FDBD00135D9E713
:1048F00003B0F0BD0CB470B59AB004460E461EABC2
:1049000053F8042B0093642101A802F04BFB0546E9
:10491000234604F50572314601A8FFF7AFFF94F86E
:1049200020322BB928461AB0BDE8704002B070475B
:10493000204600F011F9F5E7002303E0C21800213A
:1049400011770133B3F5FC7FF8DB704700281DDBDE
:1049500000291BDB532819DC2F2917DC30B4CC10BD
:10496000542505FB040001F00701012404FA01F1BC
:10497000C9B22AB103441A7F1143197730BC70477A
:1049800003441A7F22EA01011977F7E770472DE9FE
:10499000F84F83468A4691461E460A9FDDF82C80D2
:1049A000002525E0E31D08E00C9BFFF7CFFF013455
:1049B000BC421CDA2346002CF4DBDB1006FB03535D
:1049C00019F80300614204F0070301F0070158BF22
:1049D0004B4201229A40024005EB0B0004EB0A0116
:1049E000B8F1000FE0D0B2FA82F25209DCE70135EB
:1049F000B54201DA0024DBE7BDE8F88F20F02003A0
:104A0000072B01DD0120704710B582B00C4640F045
:104A1000200002A901F8010D4FF47A7301222068E9
:104A2000FDF720FD002002B010BD30B583B030F09E
:104A30000D050CD10C4602A901F8010D4FF47A7353
:104A400001222068FDF70EFD284603B030BD022587
:104A5000FAE7032810D810B582B00C4640F00400E5
:104A600002A901F8010D4FF47A7301222068FDF7C5
:104A7000F9FC002002B010BD04207047072810D8B0
:104A800010B582B00C4640F0100002A901F8010DEB
:104A90004FF47A7301222068FDF7E4FC002002B095
:104AA00010BD0520704710F0800F10D110B582B0F6
:104AB0000C4640F0800002A901F8010D4FF47A7312
:104AC00001222068FDF7CEFC002002B010BD0320BB
:104AD0007047F0B583B004460D4617461E4603687E
:104AE0001A68136843F040031360002281888068CD
:104AF000FCF766FB0022A1892069FCF761FB6423B7
:104B00000193019B013B0193002BFAD10122A18962
:104B10002069FCF755FB0022A18AA069FCF750FB35
:104B200021460120FFF76AFF21463846FFF7BBFF09
:104B300021463046FFF78DFF21469DF82000FFF704
:104B40009DFF21460020FFF759FF21462846FFF729
:104B50006CFF002003B0F0BD10B582B00446002207
:104B600081888068FCF72CFB0022A18AA069FCF7F1
:104B700027FB02A9802301F8013D4FF47A7301223B
:104B80002068FDF76FFC02A9402301F8023D4FF4B5
:104B90007A7301222068FDF765FC0122A18AA069D1
:104BA000FCF70EFB4FF47A734FF4FC7204F11C0116
:104BB0002068FDF757FC02B010BD000070B5064636
:104BC0000A4C2046FFF7B8FE04F5057523462A4631
:104BD00005210A20FFF736FE23462A4601213046EA
:104BE000FFF74CFE2046FFF7B7FF70BD0C02002018
:104BF00002680B4B9A4200D070470A4B1B78DBB21D
:104C0000012B08D0074B1B78DBB2022BF4D1054BEC
:104C100004221A70F0E7034B03221A70F2E700BF78
:104C200000040040F801002008B50368114A9342CF
:104C300000D008BD027F012A10D0037F022BF8D1DB
:104C40000D4B1B78DBB2022BF3D10421FDF778FD6D
:104C50000A4B1860084B05221A70EAE76FF0010250
:104C60001A61054B1B78DBB2012BE6D1024B022205
:104C70001A70E2E700040040F80100203004002030
:104C800010B50C46FFF79AFF04B1FEE7014B002276
:104C90001A7010BDF8010020FEE7000000B59FB0BB
:104CA000012214924FF4803315930021169118922B
:104CB00002221B921C934FF4E0131D9314A8FCF7DF
:104CC00099FA50BB0F230F930221109100231193E7
:104CD0004FF48062129213930FA8FCF761FE08BB99
:104CE0004FF48053009300230C936846FCF78AFF2F
:104CF000E8B9FCF781FF104BA3FB00308009FCF7FB
:104D0000B3F80420FCF7C6F8002211464FF0FF303C
:104D1000FCF738F81FB05DF804FB40F22311074898
:104D2000FFF7BAFF40F231110448FFF7B5FF4FF427
:104D30009C710248FFF7B0FFD34D6210F097000856
:104D400030B52DED028B89B0FBF7C6FFFFF7A6FF4C
:104D5000FFF710FD00F030F900F0E4FA00F010FA6F
:104D6000804C814B23604FF48043A3807F4BA36032
:104D70004FF48062A28123614FF48052A282A3612A
:104D80007B4D04F5057328686968AA6807C3AA897A
:104D90001A8003230093022340220D212046FFF7AF
:104DA00098FE40214FF09040FCF7F6F930B1714B7E
:104DB00006221A7001217048FFF762FF6F4C002134
:104DC0002046FFF7BFF804212046FFF7BBF8226812
:104DD000D36843F00103D3604EE06948FFF7EEFE6D
:104DE0001D20FCF72BF8634B00221A701D20FCF7E6
:104DF0000FF841E06348FFF7E1FE6420FBF790FF06
:104E00003AE06148FFF7DAFE33E06048FFF7D6FE8C
:104E10002FE0544C2046FFF78FFD04F5057523461F
:104E20002A4602210846FFF70DFD05AB029318EE56
:104E3000100AFBF731FBCDE90001554A012120465C
:104E4000FFF758FD21462846FFF7FFFC0790069024
:104E5000011423462A4610310220FFF7F3FC4D4B84
:104E60001B684D4A01212046FFF744FD2046FFF70D
:104E700073FE3220FBF754FF08214848FEF7CCFFB1
:104E80001D20FBF7DBFF3B4B01221A701D20FBF7B7
:104E9000BFFF434B1B6813F0010FFAD14FF4806141
:104EA0004FF09040FCF778F9002896D1314B1B78F1
:104EB000DBB2052B09D02F4B1B78DBB2032B04D0C0
:104EC0002C4B1B78DBB2042BF0D11D20FBF7B6FF77
:104ED000284A1378DCB2002313701D20FBF798FFDB
:104EE00040214FF09040FCF757F9002882D1032C65
:104EF00087D0284B1A6849F270439A4285D8254BCF
:104F00001B6803EB83035B00264AA2FB03235B09B8
:104F100007EE903AB8EE678A234B1B68ADF8143061
:104F20001B0C8DF81630DFED217AB4EEE78AF1EE36
:104F300010FA04DD88EE278A00238DF81530DFEDA6
:104F40001C7AB4EEE78AF1EE10FA7FF762AFF2EE68
:104F5000047A88EE278A63238DF814306D238DF848
:104F6000153056E70C0200203404002000040048ED
:104F700030960008F80100200098000898040020EE
:104F80001C98000834980008549800086498000899
:104F9000809800083004002094980008D80400206D
:104FA000002C014009CB3D8DAC98000800007A44EC
:104FB0000000C8427047000008B51148114B03605B
:104FC0004FF482734360002383604FF4E062C26059
:104FD000036143614FF4007282611022C261036277
:104FE000436283620722C262036308234363FDF7BF
:104FF0001BF900B908BD47210348FFF74DFEF9E74B
:105000003404002000380040B09800080268114BBA
:105010009A4200D0704700B587B003F5EC33DA69E7
:1050200042F48042DA61DB6903F480430093009B21
:105030004FF420430193022302930023039303239D
:1050400004930523059301A90348FBF747FF07B025
:105050005DF804FB003800400004004800B583B050
:10506000214B9A6942F001029A619A6902F00102A9
:105070000092009ADA6942F08052DA61DB6903F04B
:1050800080530193019B0320FBF75EFE0022114633
:105090006FF00B00FBF776FE002211466FF00A005E
:1050A000FBF770FE002211466FF00900FBF76AFE65
:1050B000002211466FF00400FBF764FE0022114647
:1050C0006FF00300FBF75EFE002211466FF0010057
:1050D000FBF758FE002211464FF0FF30FBF752FE5F
:1050E00003B05DF804FB00BF001002407047FEE70C
:1050F000FEE7FEE7FEE770477047704708B5FBF72D
:10510000FDFDFBF7E6FE08BD08B50248FDF7B9FB5B
:1051100008BD00BF980400201549D1F8883043F439
:105120007003C1F88830134B1A6842F001021A600C
:105130005868114A02405A601A6822F0847222F4B8
:1051400080321A601A6822F480221A605A6822F4A7
:10515000FE025A60DA6A22F00F02DA62186B074A1E
:1051600002401A6300229A604FF000638B60704720
:1051700000ED00E0001002400CC07FF8CCFC00FF06
:1051800000B591B03848394B036047234360002392
:1051900083604FF6FF72C26003618361FDF79AFC82
:1051A00000283DD110A94FF4805341F8103D2E48FE
:1051B000FEF748F9002838D12B48FDF76FFD00288D
:1051C00038D10423079350230893002309930B93AA
:1051D00007A92548FEF76AFD002830D10023049373
:1051E000069304A92048FFF735F968BB0022009216
:1051F0000123019302920F23039369461A48FEF795
:105200000FF830BB02230093019300230393042281
:1052100069461548FEF704F800BB11B05DF804FBC1
:105220008F211348FFF738FDBCE795211048FFF7A1
:1052300033FDC1E79A210E48FFF72EFDC1E7A321F8
:105240000B48FFF729FDC9E7AA210948FFF724FD0C
:10525000CCE7B3210648FFF71FFDD3E7BB21044885
:10526000FFF71AFDD9E700BF9804002000040040B2
:10527000C098000810B588B00368194A934204D05A
:10528000184A93420CD008B010BD174B9A6942F4EB
:1052900000629A619B6903F400630193019BF2E74A
:1052A000114BDA6942F00202DA61DB6903F00203B2
:1052B0000293029B4023039302230493002405944A
:1052C0000694079303A94FF09040FBF707FE224690
:1052D00021461D20FBF756FD1D20FBF799FDD2E767
:1052E000002C0140000400400010024002680C4BFA
:1052F0009A4200D0704700B587B04FF480630193A5
:10530000022302930023039304930623059301A928
:105310004FF09040FBF7E2FD07B05DF804FB00BFE3
:10532000002C014000B59BB03E483F4B0360472333
:105330004360002383600F22C26003614361836185
:10534000FDF7C8FB00284AD11AA94FF4805341F851
:10535000103D3448FEF776F8002845D13148FDF776
:1053600029FC002845D108212E48FDF70BFD002817
:1053700044D1002313931493159313A92948FFF7DD
:1053800069F800283FD170230C9302230D9300236A
:105390000E930F9310931193129308220CA9214896
:1053A000FEF7DAFE002833D1002301930293039322
:1053B000049305934FF400520692079308934FF01D
:1053C000007209920A930B9301A91648FFF7EAF8B5
:1053D00018BB1448FFF78AFF1BB05DF804FB45219A
:1053E0001248FFF759FCAFE74B211048FFF754FC78
:1053F000B4E750210D48FFF74FFCB4E755210B48A7
:10540000FFF74AFCB5E75D210848FFF745FCBAE71E
:1054100069210648FFF740FCC6E779210348FFF7FA
:105420003BFCD6E7D8040020002C0140C0980008BF
:10543000DFF834D0002103E00C4B5B5843500431BB
:105440000B480C4B42189A42F6D30B4A02E0002359
:1054500042F8043B094B9A42F9D3FFF75DFE00F096
:1054600011F8FFF76DFCFEE700A00020909B0008FC
:1054700000000020DC010020DC0100201C050020D1
:10548000FEE7000070B50D4E0D4CA41BA4100025C6
:10549000A54209D10B4E0C4C03F0AEFDA41BA41089
:1054A0000025A54205D170BD56F825309847013535
:1054B000EEE756F8253098470135F2E7889B00085B
:1054C000889B0008889B00088C9B0008D0F8EC00A3
:1054D00070470000044B054A1B681B6A002B08BF7D
:1054E0001346D3F8EC0070470C0000207000002039
:1054F00082B001B901A942B14BB113780B601278A7
:10550000101C18BF012002B070471046FBE76FF077
:105510000100F8E702440346934200D1704703F8C4
:10552000011BF9E72DE9FF4755EC104B0D9FDDF806
:1055300030A0002D0E4691461946B8BF22462B4694
:1055400027F02007BBBF05F100431D4600232D2394
:10555000B8BF1446462F0B7004D0452F00D101363A
:10556000022100E0032103AB019302AB009332461A
:10557000534645EC104B01F0BFFD472F804602D14A
:1055800019F0010F26D0462F08EB060911D198F823
:105590000030302B0AD10022002320462946FBF799
:1055A00097FA18B9C6F10106CAF80060DAF80030B7
:1055B00099440022002320462946FBF789FA38B98E
:1055C0003022039B4B4505D2591C03911A70F8E712
:1055D000CDF80C90039B0E9AA3EB08034046136092
:1055E00004B0BDE8F087F7B500290446BABF4942C8
:1055F0002D232B23092904F8022B437020DD0DF104
:1056000007031F460A2691FBF6F506FB15113031FC
:10561000092D03F8011C03F1FF32294609DC303162
:10562000023B02F8011CBB42224604D3101A03B00D
:10563000F0BD1346E7E713F8012B04F8012BF2E75E
:10564000302319448370021DC170EFE72DE9F04F3C
:105650008DB00C46DDF8588016461F46054602F010
:105660002BFE036804931846FAF76EFF00230A9393
:10567000D8F800300590073323F0070303F1080240
:1056800094F818A0D4F800B0C8F80020D3E900239B
:10569000C4E91223D4E9128929F000430793CDF815
:1056A00018804FF0FF32A74BDDE90601FBF742FA05
:1056B00070BB4FF0FF32A34BDDE90601FBF71CFA8C
:1056C00030BB0022002340464946FBF70BFA10B1DD
:1056D0002D2384F843309C4A9C4BBAF1470F8CBF72
:1056E0009046984603232BF00402236122604FF07A
:1056F0000009009733460BAA2146284600F0E6F938
:10570000013040F08D804FF0FF300DB0BDE8F08FDC
:1057100042464B4640464946FBF70CFA10B18C4ACC
:105720008C4BDAE761684B1C4BF480620AA83ED1CF
:10573000062363600023CDE9020309AB009349EC23
:10574000108B0DF123032260CDF804A06168284678
:10575000FFF7E8FE0AF0DF03472B804609D1099BDB
:10576000D81C02DB6268934247DDAAF1020A5FFAA5
:105770008AFABAF1650F099924D80139524604F121
:1057800050000991FFF72FFF0A9A1318012A81464A
:10579000236102DC2268D10701D5013323619DF822
:1057A0002330002BA5D02D2384F84330A1E7BAF194
:1057B000670F00F07781BAF1470FBBD10029B9D14B
:1057C0000123B6E7BAF1660F19D1002963680CDD31
:1057D000216113B92268D20702D501330B4423613A
:1057E000099BA3654FF00009D9E713B92268D007D8
:1057F00001D50233F3E70123F1E74FF0670ADDE952
:105800000932934205DB22682361D107E8D50133D1
:10581000E5E7002BD4BFC3F1020301231344DEE705
:1058200023685A0507D42369424631462846B847BB
:1058300001302BD167E7BAF1650F40F2DC8000221E
:105840000023D4E91201FBF743F9002833D00123E8
:10585000414A31462846B84701303FF454AFDDE9AC
:1058600009239A4202DB2368D8070FD5DDE9042318
:1058700031462846B84701303FF445AF4FF00008A5
:1058800004F11A090A9B013B434509DC23689B0785
:1058900000F10381E0680B9B9842B8BF184634E7DB
:1058A00001234A4631462846B84701303FF42BAF22
:1058B00008F10108E6E7099B002B2BDC0123264AAF
:1058C00031462846B84701303FF41DAF099B23B944
:1058D0000A9B13B92368D907D8D5DDE904233146DB
:1058E0002846B84701303FF40EAF4FF0000904F1ED
:1058F0001A0A099B5B424B4501DC0A9B94E7012392
:10590000524631462846B84701303FF4FCAE09F113
:105910000109EEE70A9AA36D9A42A8BF1A46002A27
:10592000914607DD1346314642462846B8470130C6
:105930003FF4E9AE04F11A034FF0000B29EAE979CC
:10594000069315E0FFFFEF7FDE980008DA98000865
:10595000E6980008E2980008EA9800080123069AF1
:1059600031462846B84701303FF4CDAE0BF1010B6C
:10597000D4F858A0AAEB09035B45EFDCDDE9092365
:105980009A42D04415DB2368DA0712D40A9B09999E
:10599000A3EB0A02A3EB010A9245A8BF9246BAF113
:1059A000000F0EDC4FF000082AEAEA7A04F11A0927
:1059B00019E0DDE9042331462846B8470130E5D136
:1059C000A1E65346424631462846B8470130E9D160
:1059D00099E601234A4631462846B84701303FF44C
:1059E00092AE08F10108DDE909239B1AA3EB0A0333
:1059F0004345EEDC4AE70A9A012A01DCDB073AD587
:105A00000123424631462846B84701303FF47BAE79
:105A1000DDE9042331462846B847013008F1010882
:105A20003FF471AE0A9B002203F1FF3AD4E9120160
:105A30000023FBF74DF8C8B9534642463146284685
:105A4000B84701300ED15EE6012352463146284662
:105A5000B84701303FF457AE08F101080A9B013BFB
:105A60004345F1DC4B4604F15002DEE64FF00008FE
:105A700004F11A0AF2E70123DFE701234A4631461F
:105A80002846B84701303FF43EAE08F10108E3680C
:105A90000B9A9B1A4345F0DCFCE64FF0000804F13A
:105AA0001909F4E700293FF48BAE0023CDE9020386
:105AB00009AB009349EC108B2260CDF804A00DF1E6
:105AC00023032846FFF72EFD804648E62DE9F047E0
:105AD00091461F468A680B69DDF820809342B8BF63
